:040000008A15002835
:06000600000000000800EC
:10000C000F3083120313FC004730FD00FD0B0C284E
:0A001C00FC0B0C2800000000080097
:0E002600213083120313FD00FD0B1728080084
:0E003400F201F101F001F801F30100300800C3
:100042007B15FB1F2B280130F300F201F101F001B7
:08005200FA0DF20CFF3008006A
:08005A00FA1FF2130030080048
:10006200FB14FB1F3B28FF30F300F200F100F0000D
:08007200FA0DF20CFF3008004A
:06007A00FB15FF30080039
:10008000A0017208031D55287108F2007008F100E4
:10009000F001A0157208031D55287108F200F10146
:1000A000A01120167208031963282008F302031D0B
:1000B000031C67280310F21B6B28F00DF10DF20DE5
:1000C000F30B5B2867280130FC001A206E280230F1
:0E00D000FC0021206E280430FC002D200800CA
:1000DE0083120317B71B762803138813782803138C
:1000EE0088170317371B7E28031308138028031362
:1000FE0008170317B71A86280313881288280313C4
:10010E0088160317371A8E28031308129028031324
:10011E0008166F18942808159528081188150320BD
:10012E0088110317B7199E2803138813A0280313E9
:10013E00881703173719A62803130813A8280313C3
:10014E0008170317B718AE2803138812B028031325
:10015E00881603173718B62803130812B828031386
:10016E0008166F18BC280815BD280811881503201D
:0E017E0088116F1CC4280620C5281320080015
:10018C007C18FC28FC18CD287C191B29C628A0013A
:10019C007208031DED287108F2007008F100780850
:1001AC00F000F801A0157208031DED287108F2008B
:1001BC007008F100F001A01120167208031DED2843
:1001CC007108F200F101A015720803190F2920081B
:1001DC00F302031D031C13290310F21BFC28F80D5A
:1001EC00F00DF10DF20DF30BF32813297B1B701C92
:1001FC001729F81F1729F00A0319F10A0319F20A33
:10020C00031D1729F20CF10CF00CF30A03191B292E
:10021C0017290130FC001A201E290230FC00212075
:10022C001E290430FC002D201E290830FC00312032
:04023C0000000800B6
:100240000E3083120313FD00FD0B2429000008006B
:1002500083120313FB017308031D770803197F2919
:1002600072087606FA007708F3077E30031C3C29F3
:10027000F302031882293F29F302031C852972081F
:10028000F8007108FC007008FD00F817F61703105D
:10029000F201F101F0011830A0007D1C5929740809
:1002A000F00775080318750FF10776080318760F25
:1002B000F207F20CF10CF00CF80CFC0CFD0C031026
:1002C000A00B4D29F21B6929F80DF00DF10DF20D6F
:1002D000F3037B1B701C7B29F81F7B29F00A031991
:1002E000F10A0319F20A031D7B29F20CF10CF00C40
:1002F000F30A03198229FA1FF2130030872901300B
:100300001A2087290230312087290430212000005B
:020310000800E3
:10031200831203137408003A031DA4297508003AD6
:10032200031DA4297608003A031DA4297708003A80
:10033200031DA429FF30F000FF30F1007F30F200EE
:10034200FF30F3003F2A8312031377080319332A7D
:1003520073080319362A720876068039FA00F217F2
:10036200F617A0017208F8007108FC007008FD0081
:100372007408FD027508031C750FFC027608031C45
:10038200760FF802F801FC01FD01031CCF290310CE
:10039200F20CF10CF00CF80C0130A0007708F3021B
:1003A200031CD9297E302007F3070318392ADE29D6
:1003B2007E302007F307031C3C2A1830FA07FD0D94
:1003C200FC0DF80DF00DF10DF20DA00D7408F00208
:1003D2007508031C750FF1027608031C760FF202F2
:1003E200760DA004201CF7297D14022A7408F00758
:1003F20075080318750FF10776080318760AF207D5
:100402007D10FA031F307A05031DE0297B1B7D1C3A
:10041200292A0310F00DF10DF20DA00D7408F0025F
:100422007508031C750FF1027608031C760FF202A1
:10043200760D20040139FD070318FC0A0319F80A96
:10044200031D292AF80CFC0CFD0CF30A0319392AA6
:10045200FA1FF8137808F2007C08F1007D08F0001A
:1004620000303E2A01303D203E2A02301A203E2A28
:0E047200043031203E2A08302120000008000E
:10048000831203136F1003173508B7006F206F1422
:02049000080062
:100492008312031372087606A000F801F9017308AB
:1004A2007702031C6C2A7708FD007308F7007D08A9
:1004B200F3007608FD007208F6007D08F200750868
:1004C200FD007108F5007D08F1007408FD00700858
:1004D200F4007D08F00077080319E52A7208FA0093
:1004E200F217F61777087302F70003199F2A0830EC
:1004F2007702031C952AF7007408F9007508F400C6
:100502007608F500F60108307702031C952AF700F9
:100512007408F9007508F400F50108307702031C2D
:10052200952A7A08F200E52A770803199F2A031010
:10053200F60CF50CF40CF90CF70B982AA01FAC2A58
:10054200F909F409F509F609F90A0319F40A031974
:10055200F50A0319F60A7908F80774080318740FE4
:10056200F00775080318750FF10776080318760F60
:10057200F207A01BC52A031CD52AF20CF10CF00CC1
:10058200F80CF30FD52AE12A0318D92AF809F00941
:10059200F109F209F80A0319F00A0319F10A031919
:1005A200F20A8030FA06DD2A0130FC00C620E72A72
:1005B2000230FC00C620E72A0430FC004020E72A73
:1005C2000830FC003120E72A0030FC00000008005F
:1005D200831203173508F2007208F100F20A360896
:1005E200F000B60A700884000008F0007108840068
:1005F200700880007108840000080319012BED2A9D
:060602003508F0000800BD
:0E0608008312031711088A00100882000800F0
:10061600831203139F01C0309F046E09F000700817
:1006260083169F051F179F17831203173508F000BF
:10063600F00D7010F00D7010F00D701070080313AF
:100646009F041F1420211F151F1D2B2B0000272B75
:100656001F101E08F100F00183161E08F00400307A
:04066600F104080093
:10066A0083120313FD01F80170080319003474069C
:10067A00FA00FA1BFD09FB01F41F452BF409F40AE1
:10068A00F01F492BF009F00A70087404FA00FA1BEB
:10069A006D2B7408F802F00D700DF80D7408F80748
:1006AA00F00D0630FC00700DF80D74087018F80291
:1006BA00701CF807F00DFC0B582B701CF8077B1800
:1006CA007B2BFD1F0034F009F00AF809F80A003400
:1006DA00F41F782BF01B752B7008F800F001662BBD
:1006EA00F001F00A0034F009FB0A4E2BF80A7408EC
:1006FA007802031D662BF801F00AF01F662BFF34FF
:02070A000800E5
:10070C00831203137008F8007108F000F101F20174
:10071C00F301FB01FC019630F300FA01F01F9C2B56
:10072C00F809F009F80A0319F00AFA177008F10031
:0C073C007808F000F801F20140200800ED
:1007480083120313FA017308031D7A147708031D33
:10075800FA147A080319F02B033A0319BB2B7A18F9
:10076800B82BF61FEE2BEC2BF21FEC2BEE2B72089E
:100778008039FA00F21376088039F6137A060319DD
:10078800C92B7A080319EC2BEE2B7708730203198F
:10079800D02B031CE42BE82B760872020319D72B05
:1007A800031CE42BE82B750871020319DE2B031CCC
:1007B800E42BE82B740870020319F02B0318E82BBC
:1007C800FA080319EE2BEC2BFA080319EC2BEE2B85
:1007D8000314080003100800031403150800080098
:1007E80083120317B001B101B201B301B4012408A7
:1007F800AC002508AD002608AE002708AF002F087A
:10080800FF3A031D112C2E08FF3A031D112C2D0849
:10081800FF3A031D112C2C08FF3A031D1B2C280836
:10082800B500AD30B600E9220330F0006F2E01307C
:10083800AA00AE1F2B2C80302E06F0007008AE00E8
:10084800AA0AB10A280884002D308000A80A0030BE
:10085800F0002F06031D3A2C70082E06031D3A2CB3
:1008680070082D06031D3A2C2C08003A031D432C52
:100878002808B500B130B600E922F0016F2E2F0824
:10088800FF3A031D512C2E08003A031D512C2D0848
:10089800003A031D512C2C08003A031D5B2C280834
:1008A800B500A930B600E9222A08F0006F2E003002
:1008B800F4000030F5000030F6007F30F7002C0817
:1008C800F0002D08F1002E08F2002F08F300A423F1
:1008D800013003180030F00070080319902C03173A
:1008E8002C08F0002D08F1002E08F2002F08F30064
:1008F8000030F4000030F5002030F6008230F700B8
:10090800282170080317AC007108AD007208AE000A
:100918007308AF00B4035B2C03170030F4000030F9
:10092800F5002030F6008230F7002C08F0002D0882
:10093800F1002E08F2002F08F300A4230130031C55
:100948000030F00070080319C62C03172C08F000BB
:100958002D08F1002E08F2002F08F300CD30F40026
:10096800CC30F5004C30F6007B30F70028217008B9
:100978000317AC007108AD007208AE007308AF0031
:10098800B40A902C0317FF302C05F800FF302D0512
:10099800F9007F302E05FA0000302F05FB0078089B
:1009A800F4007908F5007A08F6007B08F700F40DE2
:1009B800F50DF60DF70D741000302C05F000003021
:1009C8002D05F10000302E05F200FF302F05F30051
:1009D8007008AC007108AD007208AE007308AF0073
:1009E80074082C04F00075082D04F10076082E0414
:1009F800F20077082F04F3007008AC007108AD000E
:100A08007208AE007308AF007F302F02F000700844
:100A1800AB000130AF007008F4002C08F0002D087E
:100A2800F1002E08F2002F08F30074080319232D93
:100A3800F00DF10DF20DF30D7010FF3E1A2D700838
:100A4800AC007108AD007208AE007308AF002F0843
:100A5800303EF0002808840070088000A80AB10A17
:100A680080303406F0008030013A7002031C452DB6
:100A78008030063AF000803034067002031C452DA1
:100A88004D2D280884002E308000A80A0130B000BF
:100A9800B10A0630AB002B08003A0319AF2DAF019D
:100AA8002C08F0002D08F1002E08F2002F08F300A2
:100AB800F00DF10DF20DF30D7010F00DF10DF20DBA
:100AC800F30D70102C08F0072D0803182D0FF107EF
:100AD8002E0803182E0FF2072F0803182F0FF307FD
:100AE8007008AC007108AD007208AE007308AF0062
:100AF8002C08F0002D08F1002E08F2002F08F30052
:100B0800F00DF10DF20DF30D70107008AC007108C6
:100B1800AD007208AE007308AF002F08303EF00039
:100B28002808840070088000A80AB10A3008003A32
:100B3800031DAD2DB4033408003A031DAD2D01305B
:100B4800B300280884002E308000A80A0130B000C5
:100B5800B10AAB034F2D3308013A031DB42DB1037D
:100B6800FF302807840000082E3A031DBD2DA80376
:100B7800B1038030003AF000803034067002031868
:100B8800C72D0130B20080303406F0008030003AC2
:100B980070020318D12D0230B2003408AB00803047
:100BA800093AF000803034067002031CDD2DB20AC9
:100BB800DF2D0230B20732083107F100F2010318C5
:100BC800F20A80307206F00080307002031DEE2DAC
:100BD800290871020318F72D280884003030800096
:100BE800A80AB10ADF2D3408003A0319362E28085E
:100BF800840065308000A80A80303406F000803018
:100C0800003A70020318102E280884002D30800046
:100C1800A80A3408003CB4003408AB008030093A14
:100C2800F0008030340670020318272E0A30F400D2
:100C38002B08F00035233030F0070317280884000C
:100C480070088000A80A0A30F4002B08F000352349
:100C58007808F0003030F00703172808840070087F
:100C68008000A80A32083107F0007008B10029088E
:100C78007002F1007108AB008030003AF00080305B
:100C8800710670020318542E8030003AF00080304C
:100C98002B0670020318532EAB03A803482E6B2EA5
:100CA80080302B06F0008030003A700203186B2E5B
:100CB80080302B06F0008030003A700203186B2E4B
:100CC800AB0A2808840030308000A80A5C2E280867
:080CD80084008001F001080016
:100CE000831203137008F8007108F000F101F2019B
:100CF000F301FB01FC019630F300FA017008F100EA
:0C0D00007808F000F801F2014020080023
:0C0D0C00831203138030F6064922080011
:100D180083120317A601A7010030A8000430A90018
:100D280083160313CE01CF0180304F06F0008030C8
:100D38007002031DA12EC8304E020318D42E0330B2
:100D480083120317B5000B23700883120317A4003E
:100D58007108A50080302706F20080307106720203
:100D6800031DB82E700826020318BE2E2408A600FC
:100D78002508A70080302506F0008030290670027B
:100D8800031DC82E280824020318CE2E2408A80004
:100D98002508A90083160313CE0A0319CF0A982E33
:100DA8008312031728082602F0002908031C013EB5
:100DB8002702F10086230030F4000030F5002030CF
:100DC800F6008130F70028210030F4000030F500EB
:0C0DD8000030F6008930F7008921080087
:100DE40004238A110A128000840A900A0319910AC2
:080DF400F003031DF22E0800BC
:100DFC00831603138811081108128812081388131C
:100E0C0083128811081188130813881208120620FF
:100E1C00062006208816081688150320881106203F
:100E2C0088150320881106208815032088110620B8
:100E3C0008128815032088110620881503208811B4
:100E4C008812881788150320881106208813081625
:100E5C008815032088110812881503208811062094
:100E6C008815032088110816881503208811062080
:100E7C000812881503208811881708178816081679
:0C0E8C0088150320881106206F14080050
:100E98005E2F803083120317A400712FC030A40086
:100EA800712F9430A400712FD430A400712F80309A
:100EB800A400712F831203172408013A03194D2F38
:100EC8002408023A0319522F2408033A0319552F0C
:100ED8002408043A0319582F5B2F2503F00024082F
:100EE800F0077008A4007008B7006F206F10031790
:100EF800A701270826078400000803198C2F270854
:100F0800260784000008B50040220317A70A7D2F92
:060F180003136F14080032
:101000002E2583160313880183128801FF3083166F
:101010008600FF308500013083129F000130831667
:101020009F0007309C048A11FE268A1501300317A1
:10103000B7008A116F208A150C300317B7008A1188
:101040006F208A1501300317A4000130A50041303C
:10105000A6008A114C278A1502300317A40001301C
:10106000A5004D30A6008A114C278A151030FB00D0
:101070003930FC000D30FD00FD0B3C28FC0B3C28FA
:10108000FB0B3C280000000001300317B7008A1159
:101090006F208A1501300317A4000130A5006430C9
:1010A000A6008A114C278A1502300317A4000130CC
:1010B000A5005A30A6008A114C278A151030FB0073
:1010C0003930FC000D30FD00FD0B6428FC0B64285A
:1010D000FB0B64280000000001300317B7008A11E1
:1010E0006F208A15031792019301940195019601CF
:1010F0009701980199019A019B019C019D019E0114
:101100009F010317061CEE2A003003136306031D1C
:101110008B2800306206031DB22801300317B70088
:101120008A116F208A1501300317A4000130A50031
:101130002730A6008A114C278A151030FB00393061
:10114000FC000D30FD00FD0BA328FC0BA328FB0BBE
:10115000A328000000000130E2000030E300831605
:10116000CE01CF01831203179201930194019501DF
:1011700096019701980199019A019B0192019301AF
:1011800000301302031DC628C83012020318F228CB
:10119000B5018A110B238A158A1170268A15031747
:1011A0001408F4001508F5001608F6001708F700F3
:1011B0008A1149228A157008031794007108950056
:1011C00072089600730897000830FC00C930FD00D3
:1011D000FD0BE828FC0BE82800000000920A031928
:1011E000930AC0280030F4000030F5004830F600C3
:1011F0008630F7001408F0001508F1001608F20018
:101200001708F3008A1189218A150A30F400283062
:10121000F5002030F6007730F7008A1128218A1572
:101220007008F4007108F5007208F6007308F70002
:101230007B30F0001430F1001E30F2008030F300FB
:101240008A1186268A150230F4002B30F50007300B
:10125000F6007B30F7008A1189218A157008031780
:1012600098007108990072089A0073089B001A3060
:10127000FC00F830FD00FD0B3B29FC0B3B29000076
:101280000130B5008A110B238A1570088312B4004F
:101290007108B5008A1186238A150030F400C03029
:1012A000F5007F30F6008830F7008A1189218A1511
:1012B0000030F4000030F5004030F6008430F700D4
:1012C0008A1128218A157008A1007108A2007208ED
:1012D000A3007308A4001A30FC00F830FD00FD0BD9
:1012E0006F29FC0B6F2900002108F0002208F10093
:1012F0002308F2002408F30003171808F400190863
:10130000F5001A08F6001B08F7008A1128218A1533
:10131000700803179C0071089D0072089E007308F6
:101320009F000230FB000430FC00BA30FD00FD0BD2
:101330009729FC0B9729FB0B972900001808F4004C
:101340001908F5001A08F6001B08F700F001F10172
:10135000F201F3018A11A4238A150130031C003025
:10136000F00070080319B9290317980199019A012F
:101370009B0103171C08F4001D08F5001E08F60069
:101380001F08F700F001F101F201F3018A11A42313
:101390008A150130031C0030F00070080319D529AC
:1013A00003179C019D019E019F0103170130B700A7
:1013B0008A116F208A150030F4000030F5000030EB
:1013C000F6007F30F70003171808F0001908F10045
:1013D0001A08F2001B08F3008A11A4238A150130B1
:1013E00003180030F00070080319172A03171808B3
:1013F000F4001908F5001A08F6001B08F700F001C0
:10140000F101F201F3018A11A4238A1501300318B6
:101410000030F00070080319172A01300317A400E8
:101420000F30A5002530A6008A114C278A15CD3033
:10143000F400CC30F5004C30F6007B30F700031799
:101440001808F0001908F1001A08F2001B08F30050
:101450008A11A4238A15013003180030F0007008A7
:101460000319532A03171808F4001908F5001A087D
:10147000F6001B08F700F001F101F201F3018A11F7
:10148000A4238A15013003180030F00070080319F6
:10149000532A01300317A4000F30A5003C30A600EA
:1014A0008A114C278A1501300317A4000130A500CA
:1014B0003E30A6008A114C278A1501300317A4007C
:1014C0000830A5003630A6008A114C278A15023054
:1014D0000317A4000130A5003930A6008A114C275B
:1014E0008A1521080317A400031322080317A50077
:1014F000031323080317A600031324080317A700E8
:10150000DA30A8000430A9008A11F4238A150D30BE
:10151000FC00FB30FD00FD0B8B2AFC0B8B2A00002E
:1015200000000130A4000330A500DA30A6008A11C3
:101530004C278A1503171808A4001908A5001A08D3
:10154000A6001B08A700E230A8000430A9008A11F9
:10155000F4238A150D30FC00FB30FD00FD0BAE2A94
:10156000FC0BAE2A000000000130A4000A30A500E8
:10157000E230A6008A114C278A1503171C08A40024
:101580001D08A5001E08A6001F08A700D030A8004F
:101590000430A9008A11F4238A150D30FC00FB30B9
:1015A000FD00FD0BD12AFC0BD12A00000000023007
:1015B000A4000330A500D030A6008A114C278A155C
:1015C0000730FB001730FC006A30FD00FD0BE62AF7
:1015D000FC0BE62AFB0BE62A000081280313061801
:1015E000F92C003083164F06031DF82A00304E06F2
:1015F000031D212B013083120317B7008A116F20BE
:101600008A1501300317A4000130A500B330A600ED
:101610008A114C278A151030FB003930FC000D3040
:10162000FD00FD0B112BFC0B112BFB0B112B0000F4
:10163000000001308316CE000030CF008312E2019B
:10164000E3018A118C268A1570088316C60071087A
:10165000C7007208C8007308C9000030F4000030E9
:10166000F5000030F6008030F7008A1189218A15D4
:10167000F430F400FD30F5003430F6007E30F70031
:101680008A1128218A157008F4007108F500720883
:10169000F6007308F7000030F0000030F100203051
:1016A000F2008030F3008A1186268A1570088316AE
:1016B000CA007108CB007208CC007308CD0000305E
:1016C000F4000030F5007A30F6008830F7008A1117
:1016D00028218A1570080317A0007108A10072085C
:1016E000A2007308A300831603134408F000450802
:1016F000F1008A1186238A157008F4007108F5003C
:101700007208F6007308F70003172008F00021089C
:10171000F1002208F2002308F3008A1189218A15BA
:1017200070088316C0007108C1007208C2007308F7
:10173000C300023083120317B5008A110B238A15E8
:1017400070088312B4007108B5004E30FC00EB3015
:10175000FD00FD0BA92BFC0BA92B8030013AF000FA
:10176000803035067002031DB72B3408003C031887
:10177000CD2B80303506F0008030043A7002031D16
:10178000C32B003034020318CD2B0030A1000030F1
:10179000A2004030A3008230A4008030F0008030EE
:1017A00035067002031DD62B3408003C0318EC2BC1
:1017B0008030013AF000803035067002031DE22BC4
:1017C0003408003C031CEC2B0030A1000030A200C8
:1017D0004030A3008130A4002108F0002208F1006D
:1017E0002308F2002408F30083164008F40041089F
:1017F000F5004208F6004308F7008A1128218A15EF
:10180000700803179C0071089D0072089E00730801
:101810009F004E30FC00EB30FD00FD0B0D2CFC0B4F
:101820000D2C831603134008F4004108F50042080C
:10183000F6004308F700F001F101F201F3018A110B
:10184000A4238A150130031C0030F000700803192E
:101850002E2C8316C001C101C201C30183120317DC
:101860001C08F4001D08F5001E08F6001F08F7000C
:10187000F001F101F201F3018A11A4238A1501306C
:10188000031C0030F000700803194B2C03179C0157
:101890009D019E019F0103170130B7008A116F203F
:1018A0008A1501300317A4000130A500A330A6005B
:1018B0008A114C278A1501300317A4000830A500AF
:1018C000A630A6008A114C278A1502300317A400FF
:1018D0000130A500A030A6008A114C278A152108E6
:1018E0000317A400031322080317A50003132308FA
:1018F0000317A600031324080317A700DA30A80073
:101900000430A9008A11F4238A150D30FC00FB3045
:10191000FD00FD0B892CFC0B892C00000000013020
:10192000A4000330A500DA30A6008A114C278A15DE
:101930008316400883120317A4008316031341087B
:1019400083120317A500831603134208831203179B
:10195000A60083160313430883120317A700E2307F
:10196000A8000430A9008A11F4238A150D30FC0068
:10197000FB30FD00FD0BBA2CFC0BBA2C0000000064
:101980000130A4000A30A500E230A6008A114C27DD
:101990008A1503171C08A4001D08A5001E08A60030
:1019A0001F08A700D030A8000430A9008A11F42332
:1019B0008A150D30FC00FB30FD00FD0BDD2CFC0B0F
:1019C000DD2C000000000230A4000330A500D03060
:1019D000A6008A114C278A150530FB000F30FC0049
:1019E000F130FD00FD0BF22CFC0BF22CFB0BF22C6A
:0619F000EE2A7228FA2C19
:101A5C00213084004D3083120313F0008F300317B4
:101A6C009000073091008A11F2268A15A03084006C
:101A7C0003300313F000DC300317900007309100A3
:101A8C008A11F2268A156E30840001300313F0009F
:101A9C00DF3003179000073091008A11F2268A1567
:101AAC00A33084002D300313F00000300317900096
:0C1ABC000D3091008A11F2268A150800F6
:080F1E000034003400340034FB
:040F26006D340034F2
:100F2A0044344334203457344134543454344D34E3
:0A0F3A004534543445345234003479
:040F44000034003441
:060F480041343A3400348C
:060F4E0057343A34003470
:040F540072340034BF
:060F580056343A34003467
:100F5E004B3454344F3420344B34413452344134B6
:080F6E005434413459340034BD
:100F760055344E3449345634453452345334493456
:0A0F86005434453453344934003428
:100F9000503452344F344A34453453344934003495
:040FA00000340034E5
:100FA40057344134543454344D3445345434523425
:040FB400453400348C
:060FB80057343A34003406
:020FBE000F34EE
:061A000056343A340034B4
:061A060041343A340034C3
:081A0C0049344E344634003425
:081A14004E3461344E340034FD
:041A1C00303400342E
:101A200041344334203457344134543454344D34E5
:0A1A30004534543445345234003478
:081A3A000034003400340034D4
:041A4200B93400347F
:081A46000034003400340034C8
:081A4E000034003400340034C0
:041A56000034003424
:02400E004A2F37
:00000001FF
